:100000000C9461010C94A8010C94A8010C94A80113
:100010000C94A8010C94A8010C94A8010C94A801BC
:100020000C94A8010C94A8010C94CF1D0C94A11E53
:100030000C94F0180C94A8010C94A8010C94A8013D
:100040000C94A8010C94A8010C94A8010C94A8018C
:100050000C94A8010C9449190C94A8010C94A801C3
:100060000C94A8010C94A8010C94A8010C94A8016C
:100070000C94A8010C94A8010C94A8010C94A8015C
:100080000C94A8010C94A8010C94A8010C94A8014C
:100090000C94A8010C94A8010C94A8010C94A8013C
:1000A0000C94A8010C94A8010C94A8014B044B04D7
:1000B00077047704DF04FD042206220608059D0567
:1000C000AE05AE051206220622061B06C606C606A9
:1000D000D806D806CF06D806D806D806C606C6065D
:1000E000D406D806D806D4060E1F351F2D20351F7E
:1000F0002D20811FA41F2D20FB1F0A205F00600000
:1001000061005C005D005E0059005A005B00015117
:1001100062006300AC00AE00AB0049007C007D00D3
:1001200002517A0079000100680069006A006B00E2
:100130006C006D006E006F00010070007100010026
:10014000720073000C0372006F006D0061006300A9
:100150000000260354006800650052006F0079001B
:1001600061006C005300770065006100740073004B
:1001700068006900720074000000040309040902A9
:100180003B00020100A0FA09040000010301010084
:100190000921110100012240000705810308000A1E
:1001A00009040100010300000009211101000122DE
:1001B000B6000705820320000A12010002000000B9
:1001C000084B4B010001000102000105010902A1D9
:1001D0000185020901A10005091901290815002559
:1001E0000195087501810205010930093115812544
:1001F0007F95027508810609381581257F9501755F
:10020000088106050C0A38021581257F95017508BD
:100210008106C0C005010980A101850319012AB723
:1002200000150126B700950175108100C0050C0965
:1002300001A101850419012AA002150126A0029539
:100240000175108100C005010906A1018506050799
:1002500019E029E7150025019508750181020507B8
:10026000190029EF1500250195F075018102050897
:1002700019012905950575019102950175039101F3
:10028000C005010906A101050719E029E7150025A8
:10029000019508750181029501750881010507190D
:1002A0000029FF150026FF00950675088100050846
:1002B00019012905950575019102950175039101B3
:1002C000C00011241FBECFEFDAE0DEBFCDBF04B601
:1002D00003FE27C080915E0290915F02A0916002B0
:1002E000B09161028730904BA740B04BD1F410928F
:1002F0005E0210925F02109260021092610214BEC0
:1003000084B7877F84BF0FB6F894A895809160006A
:10031000886180936000109260000FBEE0E0F8E317
:10032000099511E0A0E0B1E0E0ECF1E402C0059035
:100330000D92A238B107D9F722E0A2E8B1E001C0DE
:100340001D92AE35B207E1F70E949F120C94DE2099
:100350000C94000081E0089581E008950C94AC01B4
:1003600008950C94B0011F93CF93DF9300D000D079
:100370001F92CDB7DEB749835A836B8330918401D6
:1003800089819A81311114C0662359F0222349F0E2
:100390000E946A08182F682F89819A810E94130889
:1003A00003C00E943E08182F69817A81812F04C002
:1003B0000E946A0869817A810F900F900F900F90C8
:1003C0000F90DF91CF911F910C94060FFC01262F07
:1003D000408151816281738184810C94B30181E0F9
:1003E0000895CF93DF93EC0160E00E94E601BE0127
:1003F000DF91CF910C94B1010E9436110E947A02D4
:100400000C9470110C946C1180E00C947B02089594
:100410000C9407020E94B4060E9408022FEF84E3A6
:100420009CE0215080409040E1F700C000000C9417
:100430006F190F931F93CF93DF938C0161E00E949C
:10044000E601EC01B8010E94AE018823F1F1B80188
:10045000CE010E9415178823C1F1B801CE010E9478
:100460003F15882391F1B801CE010E9471168823AF
:1004700061F1F8018281882309F1CB358DE5D80738
:10048000C1F050F4C115FCE5DF0781F0CF3DDC453C
:10049000A9F40E941E0E19C0CC35EDE5DE0761F00F
:1004A000CD35DD4559F40E94610D08C00E940A0255
:1004B0000CC00E946A0D02C00E946D0DC801DF9140
:1004C000CF911F910F910C94AA0180E0DF91CF9101
:1004D0001F910F9108950C9407020E9471170E94BA
:1004E0007B020C946B0208950C94730281E00895D2
:1004F0000C9476020895CF93C82F0E9474028C2F1B
:100500000E947802CF910895CF93DF93CDB7DEB7E5
:100510002B970FB6F894DEBF0FBECDBF4F83588721
:1005200069877A878B8761110E94AD0C9E012F5FCE
:100530003F4F86E0F90111928A95E9F785E0FE01C7
:100540003796D90101900D928A95E1F789819A81B8
:100550004C815D81452B31F09F3F31F491E08F3F1D
:1005600019F403C091E001C090E090FF09C04981F7
:100570005A816B817C818D819E810E94CE0B05C04A
:10058000C9010E94EF018111F2CF2B960FB6F894AA
:10059000DEBF0FBECDBFDF91CF910895FC018081FA
:1005A00091810E94AC080895CF93882309F4A4C0D8
:1005B000C82F8238C1F40E94711781FD9DC069E384
:1005C00080910201909103010E9467180E94DF0C44
:1005D0002FEF81EE94E0215080409040E1F700C081
:1005E000000069E319C0833801F50E94711780FD8E
:1005F00083C063E580910201909103010E94671816
:100600000E94DF0C2FEF81EE94E02150804090405B
:10061000E1F700C0000063E58091020190910301C1
:100620000E947218CF910C94DF0C8438C1F40E94A0
:10063000711782FD61C067E480910201909103010E
:100640000E9467180E94DF0C2FEF81EE94E021508A
:1006500080409040E1F700C0000067E4DDCF8CEF00
:100660008C0F813AD0F46C2F80910201909103019C
:100670000E94E717882349F06C2F80910201909126
:1006800003010E9472180E94DF0C6C2F80910201FE
:10069000909103010E946718C5CF80E28C0F8830CB
:1006A00048F4C77081E001C0880FCA95EAF70E943C
:1006B000900CB8CFEBE5EC0FE33040F4F0E0E95BF1
:1006C000FE4F808190E0CF910C94A517E8E5EC0FE8
:1006D000E73150F4F0E0EE0FFF1FE75EFE4F808140
:1006E0009181CF910C94BB17CD3E30F08C2F0E949E
:1006F0002E13CF910C940014CF910895882309F400
:1007000064C0823879F40E94711781FF5EC069E38A
:1007100080910201909103010E9467180E94DF0CF2
:1007200069E310C08338B1F40E94711780FF4DC097
:1007300063E580910201909103010E9467180E9475
:10074000DF0C63E580910201909103010E94721811
:100750000C94DF0C843879F40E94711782FF35C045
:1007600067E480910201909103010E9467180E9442
:10077000DF0C67E4E7CF9CEF980F913A10F4682FF5
:10078000E1CF90E2980F983050F4877091E001C06B
:10079000990F8A95EAF7892F0E94960CD9CF9BE58D
:1007A000980F933020F480E090E00C94A51798E522
:1007B000980F973120F480E090E00C94BB178D3EA9
:1007C00020F00E9489130C94001408951F93CF9376
:1007D000DF93182FEB010E94D402209741F08FE99C
:1007E0009FE00197F1F700C000002197F6CF812F1D
:1007F000DF91CF911F910C947E03893319F060E053
:1008000070E002C060E570E00C94E603882321F0FC
:100810000E94900C0C94DF0C0895882321F00E9414
:10082000960C0C94DF0C0895CF92DF92EF92FF921A
:100830000F931F93CF93DF937C01162FC72FFC01DB
:10084000D281058102950F700E94860C8823B9F031
:10085000DD23A9F08C2F807F803421F080E2810F8E
:10086000883068F08091440282FD09C082E00E94D5
:100870002F0D0E94860C91E0D82ED92601C0D12CD4
:10088000CC2EC2948FE0C8228C2D90E0FC01EA5A55
:10089000FF4F0C9475208C2F807FCF70882311F030
:1008A000C295C07FDD2399F0CC2309F4A6C180E274
:1008B000810F883010F0111104C08C2F0E94900C11
:1008C00003C08C2F0E94A00C0E94DF0C96C1812FC8
:1008D0000E947E03CC2309F4B5C180E2810F8830E9
:1008E00038F1112329F18C2F0E94A60C24C08C2FE3
:1008F000807FCF70803211F0C295C07F112319F034
:100900001130A1F13DC08091440282FF17C0DD2368
:1009100049F0CC2329F08C2F0E94900C0E94DF0C10
:1009200080E06CC180E00E947E03CC2309F48AC180
:100930008C2F0E94960C0E94DF0C84C1DD2371F085
:10094000002341F0013031F40E94C00C8C2B0E9436
:10095000C80C78C10E94C00C8C2B1DC0002319F05C
:10096000013009F46FC10E94D50C25C0DD2321F0B0
:10097000063008F067C10EC0053008F063C11BC027
:10098000DD2361F0002331F0F701858180FF35C15F
:100990008F7085838C2F0E94060454C1002359F068
:1009A000193309F03BC1FFEF27EE83E0F1502040FF
:1009B0008040E1F731C18C2F0E940D0443C18C2F80
:1009C00086958695837019F0813061F03BC1DD23F7
:1009D00021F0812F9C2F937002C080E090E00E9454
:1009E000A51738C1DD2321F0812F9C2F937002C001
:1009F00080E090E00E94BB172DC1812FDD2319F00C
:100A00000E942E1302C00E9489130E94001422C16A
:100A10008C2F837009F045C0D11118C1412F429528
:100A200046954770440F440F612F6F70862F90E0FA
:100A3000A0E0B0E0042E04C0880F991FAA1FBB1FBE
:100A40000A94D2F714FF10C00FE010E020E030E06D
:100A500004C0000F111F221F331F4A95D2F70095C3
:100A600010952095309503C000E010E09801C695E0
:100A7000C695C370BC01CD01602B712B822B932BCB
:100A8000C23049F058F4C13019F00E942907DEC085
:100A90000E941707DBC00E943B07D8C00E941507C1
:100AA000D5C0DD2319F08C2F817001C08695882375
:100AB00009F4CCC0412F429546954770440F440F2E
:100AC000612F6F70862F90E0A0E0B0E0042E04C08C
:100AD000880F991FAA1FBB1F0A94D2F714FF10C0DA
:100AE0000FE010E020E030E004C0000F111F221FD3
:100AF000331F4A95D2F7009510952095309503C085
:100B000000E010E09801C695C695C370BC01CD0108
:100B1000602B712B822B932BC23049F058F4C130DB
:100B200019F00E94EE0792C00E94DC078FC00E945D
:100B300000088CC00E944F0789C0CF70DD2339F0B8
:100B40008C2F0E947507812F0E9406047FC0812F81
:100B50000E940D048C2F0E94960778C0123F21F14D
:100B600028F4103F41F0113FC1F043C0133F19F189
:100B7000143F79F03EC0DD2341F0053008F062C03B
:100B80008C2F8F710E94BB075DC0063008F05AC0E1
:100B9000F7CF8091440282FF18C0DD2339F08C2FFB
:100BA0008F710E9475074EC0DD23C9F38C2F8F71A2
:100BB0000E94960747C0DD2329F08C2F8F710E9479
:100BC000600740C00E945B073DC0DD2349F0CF7144
:100BD0008C2F0E94750763E08C2F0E94140D32C089
:100BE00081E00E942F0D023068F182E00E942F0DFB
:100BF00029C0DD2331F0002391F2812F0E94D4021D
:100C000021C0002399F2193349F49FEFE7EEF3E096
:100C10009150E040F040E1F700C00000812F0E94B9
:100C20007E0310C04C2F4F70612FC7010E94020F2E
:100C30000E94DA080FC04C2F4F70612FC7010E942D
:100C4000050F08C088EF8C0D843020F40E947117C6
:100C50000E947B02DD20C9F00E94820C80FD15C03D
:100C6000F70112820E947C0C0E947507C7010E9446
:100C700066060E947C0CDF91CF911F910F91FF902F
:100C8000EF90DF90CF900C949607DF91CF911F915A
:100C90000F91FF90EF90DF90CF9008950F931F93E7
:100CA000CF93DF93EC01688179818A810E94B70834
:100CB0008C010E9412080E940307B801CE010E9415
:100CC0001404DF91CF911F910F910895CF93DF937B
:100CD000EC01988189812B813C81232B31F08F3F5E
:100CE00031F481E09F3F19F403C081E001C080E04E
:100CF00080FD1DC0CE010E941902811110C00E940A
:100D0000860C8823A1F08A81882389F0809144028F
:100D100082FD0DC082E0DF91CF910C942F0DCE01AA
:100D20000E944E06CE01DF91CF910C94F101DF912C
:100D3000CF91089580E090E00E94A51780E090E0B8
:100D40000E94BB170E94AD0C0E94BD0C0E94DF0CDC
:100D50000E9431150C9400148091020190910301BE
:100D60000E947D180C949A060E949D0C0C94AC066F
:100D7000E92FE295EF704E2F50E0FA013297EE30F6
:100D8000F105B0F4EA59FF4F0C947520803F91F0C3
:100D900018F4883E68F40EC0843F51F40BC0883EBE
:100DA00048F0813F29F406C093FB882780F9089515
:100DB00080E0089581E00895FC01808191810E9486
:100DC000AC080E94B8060895CF93DF9300D000D0FE
:100DD0001F92CDB7DEB70F900F900F900F900F902E
:100DE000DF91CF910895CF93DF9300D000D000D052
:100DF000CDB7DEB726960FB6F894DEBF0FBECDBFD7
:100E0000DF91CF910895089508950C9404070C94F0
:100E100005070E94070760939301709394018093E4
:100E20009501909396010C949A060C9409070F93E0
:100E30001F9300919301109194012091950130919D
:100E40009601602B712B822B932B1F910F910C9489
:100E500009070F931F930091930110919401209122
:100E600095013091960160237123822393231F9172
:100E70000F910C9409070F931F9300919301109108
:100E80009401209195013091960160277127822766
:100E900093271F910F910C9409070C9404070E944B
:100EA0004D0760938F01709390018093910190930F
:100EB00092010C949A0660E070E0CB010C944F070D
:100EC0000F931F9341E050E060E070E08A019B01C6
:100ED00004C0000F111F221F331F8A95D2F7C901CA
:100EE000B8011F910F910C944F070F931F9341E08E
:100EF00050E060E070E004C0440F551F661F771F8C
:100F00008A95D2F780918F0190919001A0919101E3
:100F1000B09192018A019B01082B192B2A2B3B2BA4
:100F2000C901B8011F910F910C944F070F931F93A4
:100F300041E050E060E070E004C0440F551F661FC0
:100F4000771F8A95D2F7409550956095709580915E
:100F50008F0190919001A0919101B09192018A012D
:100F60009B01082319232A233B23C901B8011F91A0
:100F70000F910C944F070F931F9341E050E060E0F6
:100F800070E004C0440F551F661F771F8A95D2F783
:100F900080918F0190919001A0919101B091920167
:100FA0008A019B01082719272A273B27C901B80175
:100FB0001F910F910C944F070F931F9300918F0176
:100FC000109190012091910130919201602B712B31
:100FD000822B932B1F910F910C944F070F931F930C
:100FE00000918F0110919001209191013091920117
:100FF00060237123822393231F910F910C944F0739
:101000000F931F9300918F011091900120919101F6
:101010003091920160277127822793271F910F91AA
:101020000C944F070895292F220F920F890FE82F54
:10103000E695E695E695877051E001C0550F8A95D3
:10104000EAF785E0E89FF0011124EB57FE4F20E01E
:1010500030E070E04081CB01022E02C0969587956A
:101060000A94E2F7817081958427852384278193F0
:101070002F5F3F4F2530310569F70895292F220F43
:10108000920F890F682F669566956695982F9770D1
:1010900085E0689FB001112440E050E080E0FB0152
:1010A000E40FF51FEB57FE4F208130E0092E02C000
:1010B000369527950A94E2F721703327042E01C054
:1010C000220F0A94EAF7822B4F5F5F4F453051059C
:1010D00031F70895BF92CF92DF92EF92FF920F9374
:1010E0001F93CF93DF938C01C0908F01D09090011C
:1010F000E0909101F0909201809193019091940180
:10110000A0919501B0919601C82AD92AEA2AFB2A12
:10111000CFE1D0E0D701C6010C2E04C0B695A7954B
:10112000979587950A94D2F780FD04C0219790F790
:10113000B12C07C0BC2EB8018C2F0E944010019723
:10114000A9F38B2DDF91CF911F910F91FF90EF901D
:10115000DF90CF90BF900895CF93DF93EC010E9472
:101160006A08BE010E944010DF91CF9108951F933D
:10117000CF93DF93EB0190918401992321F0CB0170
:101180000E94AC0813C0882349F0CB010E946A0872
:10119000182F682FCE010E94130804C0CB010E94B3
:1011A0003E08182FBE01812F0E944010DF91CF9181
:1011B0001F910895EF92FF920F931F93CF93DF93A8
:1011C0008C01892B09F46CC0F12CEE24E394E80126
:1011D0002196F8018491843740F4843008F051C09E
:1011E000813081F0823019F15BC0853709F444C049
:1011F000A8F19CE7980F903708F052C08F770E94B3
:101200007E0341C00E5F1F4FFE01849190E2980F54
:10121000983050F48770FE2D01C0FF0F8A95EAF7D1
:101220008F2F0E94B00C14C00E94D4022DC00E5FFC
:101230001F4FFE01849190E2980F983060F4877000
:10124000FE2D01C0FF0F8A95EAF78F2F0E94B60C82
:101250000E94DF0C19C00E947E0316C00E5F1F4F54
:10126000FE01C491CC2381F08FE99FE00197F1F753
:1012700000C00000C150F6CF0E5F1F4FFE01F4907A
:1012800003C00E94D4028E018F2D882309F49FCFC2
:10129000EFE9FFE03197F1F700C000008150F5CF92
:1012A000DF91CF911F910F91FF90EF9008951F93C1
:1012B000CF93DF93C091970116E080919801C817F2
:1012C00099F0D0E01C9FF0011D9FF00D1124E7560E
:1012D000FE4F4081518162817381848195810E949A
:1012E000F3062196C770E9CFDF91CF911F91089542
:1012F0004091C9015091CA016091CB017091CC011C
:101300008091CD019091CE010C94F306EF92FF9263
:101310000F931F93CF93DF938091CE0182958F70AF
:1013200009F065C08091CB01882309F460C08091E9
:101330009701F09098011091C9010091CA01609144
:10134000CC017091CD0191E01F3F09F090E0C09178
:101350000001D0910101292F96E0E92E8F1509F4A3
:1013600046C06115710521F00F3F21F030E003C048
:1013700031E001C0322F90E030FD36C0E89EF00130
:10138000E99EF00D1124DF01A756BE4F11963C9146
:101390001197301329C03C91311326C012963C910D
:1013A0001297311121C013964D915C911497461BF1
:1013B000570B4C175D07C0F48091CE018F70806190
:1013C0008093CE01E256FE4F80818F7080618083D2
:1013D00089EC91E00E946606DF91CF911F910F91F9
:1013E000FF90EF900C94570901968770B7CFDF916B
:1013F000CF911F910F91FF90EF9008959F92AF9220
:10140000BF92CF92DF92EF92FF920F931F93CF93F1
:10141000DF93CDB7DEB761970FB6F894DEBF0FBE8E
:10142000CDBF8C0185E0F801DE011D9601900D9283
:101430008A95E1F7D8011296EC909091C901E0915C
:10144000CA012091CC013091CD012115310531F037
:10145000EF3F31F481E09F3F19F403C081E001C008
:1014600080E0B82FB1709B2E80FD47C1D8014C9110
:1014700011965C9111971396AD90BC90149789ECDE
:10148000C82E81E0D82EF090CB01B501621B730B02
:101490002091000130910101FF2009F4D9C0809111
:1014A000CE016217730708F095C0282F207F09F03E
:1014B00052C05E1313C0491311C0FE2CE1100EC0C0
:1014C0008F7080618093CE010E947809C6010E94CE
:1014D00066068091CE01F80185834DC1AB2831F0BD
:1014E0005F3F31F481E04F3F19F403C081E001C058
:1014F00080E080FD03C081E08E2502C080E090E0A6
:10150000F82FF170FF2E80FF1CC080919701209171
:10151000980136E0821709F40BC190E0389FF00182
:10152000399FF00D1124E756FE4F6181561306C016
:101530006081461303C06281E61203C00196877082
:10154000E9CFFE2CEE2009F416C18091CE01816016
:101550008093CE0154C05E1306C0491304C0E1104D
:1015600002C0F80199C0C8010E94DC06882361F11D
:10157000EE2051F12091CE01822F82958F7090E064
:10158000029774F08091C9019091CA0198878F8366
:101590001986BB86AA862C87CE0107960E9466060E
:1015A00086E0F801A9ECB1E001900D928A95E1F78F
:1015B0000E9486090E9478090AC05E1711F1C801CD
:1015C0000E94DC0681112CC0C8010E946606FF241F
:1015D000F394D1C0282F207F81F77A2DB98AA88A69
:1015E0006E2D89890E94E40689EC91E00E946606CE
:1015F00086E0D6011D928A95E9F70E947809F12CC0
:10160000BAC04913DCCFE110DACFF8018583C801F5
:101610000E94660686E0D6011D928A95E9F7ABC066
:10162000EE2091F22091CE01822F82958F7090E072
:1016300002970CF4B5CF8091C9019091CA019A83A9
:1016400089831B82BD82AC822E83CE010196A6CFF8
:101650006217730708F044C0FE2CEE2009F4B4CFE3
:101660005E1330C049132EC02091CE0120FD21C051
:10167000822F82958F70482F50E041155105C9F097
:10168000F80125834F30510541F08F5F982F9295D7
:10169000907F822F8F70892B8583C8010E946606F8
:1016A00086E0F801A9ECB1E001900D928A95E1F78E
:1016B0003CC086E0F801A9ECB1E001900D928A955A
:1016C000E1F759C0C8010E94DC06811169CF809101
:1016D000CE0181608093CE01C8010E9466064BC096
:1016E0007A2DB98AA88A6E2D89890E94E40686E03F
:1016F000D6011D928A95E9F718C0EE2009F464CF4F
:10170000C8010E94DC06F82E882309F45DCF86E02C
:10171000F801A9ECB1E001900D928A95E1F789EC0E
:1017200091E00E94CE020E9486090E94780923C09F
:101730004D875E878D859E850E94AC08292F229556
:101740002F70223028F49F7039F0811105C00BC032
:10175000243028F49F7049F4805E883020F0C8015E
:101760000E9466069F2CF92C06C0D80115969C9104
:10177000907F91F7F8CF8F2D61960FB6F894DEBF6A
:101780000FBECDBFDF91CF911F910F91FF90EF90D2
:10179000DF90CF90BF90AF909F9008951F93CF930D
:1017A000DF93CDB7DEB72C970FB6F894DEBF0FBE30
:1017B000CDBF4F83588769877A878B879C87CE01F7
:1017C00007960E94FE098823D1F09F8188852A858B
:1017D0003B85232B31F08F3F31F481E09F3F19F49B
:1017E00003C081E001C080E080FD47C04F81588583
:1017F00069857A858B859C850E94F3063EC086E0CC
:10180000FE013796DE01119601900D928A95E1F75F
:10181000FF81E8856A857B856115710531F0EF3FB1
:1018200031F481E0FF3F19F403C081E001C080E0A2
:1018300080FD23C02091980130E0C9010196877096
:1018400099274091970150E084179507F1F1F983AA
:10185000EA837D836C8396E0929FD001939FB00DC5
:101860001124A756BE4FFE01319601900D929A9514
:10187000E1F7809398010E94570916E08091970143
:1018800090919801891771F1189FC0011124875612
:101890009E4F0E94FE09882329F1E09197011E9F27
:1018A000F0011124E756FE4F40815181628173811E
:1018B000848195810E94F3068091970190E00196C2
:1018C0008770992780939701D9CF0E94B406109210
:1018D000980110929701E9ECF1E086E0DF011D929A
:1018E0008A95E9F72C960FB6F894DEBF0FBECDBFF0
:1018F000DF91CF911F9108958091CF0185958595B6
:10190000859508958091CF01877008959091CF01BA
:10191000977081E009F480E008958091F3010895C3
:101920009091F301892B8093F30108958095909114
:10193000F30189238093F30108951092F301089530
:101940009091F201892B8093F201089580959091F6
:10195000F20189238093F20108951092F201089513
:101960009091F101892B8093F101089580959091D8
:10197000F10189238093F10108951092F1010895F6
:101980008091D001089508950C94C30C0C94C40C5C
:101990009091440292FD08C09091D001981721F0D7
:1019A0008093D0010C94C60C08958091D0018823B7
:1019B00029F01092D00180E00C94C60C0895E091BB
:1019C0000201F09103018091F3018083E091020113
:1019D000F091030190818091F201892B8083E09145
:1019E0000201F091030190818091F101892B8083A4
:1019F0008091D001882381F0E0910201F0910301F0
:101A00009081892B808380910201909103010E9433
:101A1000D11781110E94D50C809102019091030190
:101A20000C947D170C94C30C9091440292FD10C04D
:101A300098E0899F90011124262B2093CF010E94CA
:101A400075078091CF018595859585950C94120D2C
:101A50000C9475071092CF0180E00C94120D209128
:101A6000CF01809582238093CF01982F977099F4AE
:101A700030E0482F082E000C550B2417350759F07D
:101A80009091440292FD07C08595859585950E94A9
:101A900096070C942A0D08959091440292FB2227F8
:101AA00020F9281769F080FB92F990934402809105
:101AB0004302909144020E949A0D82E00C942F0DF3
:101AC00008958091440282FB882780F991E089275C
:101AD0000C944C0D81E00C944C0D80E00C944C0D5A
:101AE0006FEF7FEF80E090E00C94C82080E090E002
:101AF0000E94A42021E0893E9E4F09F020E0822F21
:101B0000089582E090E00C949C2083E090E00C9497
:101B10009C20CF9384E090E00E949C20C82F82E21A
:101B200090E00E949C202C2F30E0A901582BCA0184
:101B3000CF910895CF93C92F682F84E090E00E9441
:101B4000AA206C2F82E290E0CF910C94AA20AB01E6
:101B5000BC018FE090E00C94BC20AB01BC0183E1A0
:101B600090E00C94BC2060E070E0CB010C94AD0DD3
:101B700060E070E0CB010E94A70D0C94B30D69EEFC
:101B80007EEF80E090E00E94C82060E082E090E07C
:101B90000E94AA2060E083E090E00E94AA201092B8
:101BA000930110929401109295011092960160E0B9
:101BB00084E090E00E94AA2060E082E290E00E942F
:101BC000AA2060E085E090E00E94AA2060E086E024
:101BD00090E00E94AA206FEF87E090E00E94AA2088
:101BE00040E050E0BA0188E090E00E94BC2060E054
:101BF0008DE090E00E94AA2040E050E0BA0188E128
:101C000090E00E94BC2060E087E190E00E94AA2062
:101C100040E050E0BA018CE190E00E94BC2060E01E
:101C200070E080E290E00E94C82040E050E0BA01FD
:101C300088E190E00E94BC200C94B80D0C94BF0D7C
:101C4000682F8EE090E00C94AA200E942E196093D9
:101C5000FD017093FE018093FF0190930002609359
:101C6000F9017093FA018093FB019093FC010895B0
:101C700085B7806885BF85B7806885BF089581E096
:101C800008950C943F0E08950C94430E0C94430E4B
:101C90000C94460E0C94430E0C944A0E0C94430E76
:101CA0000E94380E8CE191E10E9467170E944E0E4F
:101CB0000C944C0E0E94440E0C94430E0E94191971
:101CC0000E9405120C94480E9F92AF92BF92CF9241
:101CD000DF92EF92FF920F931F93CF93DF93CDB7D5
:101CE000DEB72A970FB6F894DEBF0FBECDBF0E94B5
:101CF0001A1281110E94250E85EFA82E81E0B82EC0
:101D000000E010E0902E802F0E945A11D82EF5018D
:101D1000C1905F01C826B1F40F5F1F4F0430110559
:101D200089F78FEF89838A831B820E942219816041
:101D3000782F9D838C8349815A816B818D810E948C
:101D400084022FC08091010281FD0E946011E12C6C
:101D5000FF24F3948C2D8F21F1F00E94410E8823F3
:101D600099F0EE829F82DF2081E009F480E088878D
:101D70000E9422198160782F9A8789874E815F811E
:101D800068858A850E948402F801EB50FE4F8081AD
:101D9000F826F08206C0E394FF0CF3E0EF12DACFEE
:101DA000BBCF0E941E140E9471179091F4018917F5
:101DB000B9F00E9471178093F4012A960FB6F89437
:101DC000DEBF0FBECDBFDF91CF911F910F91FF906E
:101DD000EF90DF90CF90BF90AF909F900C947B02DC
:101DE0002A960FB6F894DEBF0FBECDBFDF91CF911C
:101DF0001F910F91FF90EF90DF90CF90BF90AF9029
:101E00009F90089580E090E008950895272F30E096
:101E1000F901EE0FFF1F2E0F3F1FF9019CE0899F74
:101E2000E00DF11D1124E60FF11DEE0FFF1FE45030
:101E3000FF4F859194910895880F991FFC01EC5BE9
:101E4000FE4F859194910895CF93DF930E944510A2
:101E5000EC01811520E5920708F03FC0811540E4B0
:101E6000940708F0D2C0883E910500F5803E9105A8
:101E700008F002C1883A910570F4853A910508F09E
:101E8000A6C08130910509F49FC008F4F2C0049700
:101E900008F0F2C0EEC08F3B910508F4A1C0803C71
:101EA000910508F4E6C0805C9109A5C0811550E257
:101EB000950760F4C11581E0D80708F0DDC0CD3E7C
:101EC000D10508F4D6C0CE019065D7C0811520E3B6
:101ED000920708F093C09F708EC0811545E5940766
:101EE00008F046C0811554E5950708F0A6C0C11555
:101EF00082E5D80718F5C11521E5D20708F088C09A
:101F0000CE01F4E096958795FA95E1F7282F237096
:101F10003C2F337081E090E002C0880F991F3A9502
:101F2000E2F79C68922B2C2F2F702695269540E285
:101F3000249F90011124822B932B9FC09E0123701C
:101F400033279C2F96959695C115D34508F065C00B
:101F500041E050E002C0440F551F2A95E2F780E2AD
:101F6000989F90011124CA01822B932B9C6885C0F5
:101F7000811559E5950798F4C11588E5D80708F04B
:101F800061C0C11526E5D20708F073C08C2F0E94EE
:101F9000D9108F7190E0982F882790626EC08115BC
:101FA0004AE5940708F453C090568115904208F012
:101FB00060C08D2F8F710E94D9109E01332730622F
:101FC0008F71A901582B53C081E090E056C0855A0B
:101FD000C82FD0E0C858DE4F888190E090644DC093
:101FE000885AC82FD0E0CC0FDD1FC65BDE4F88813A
:101FF0009981946442C00E941C0F3FC09927D3FF6F
:1020000002C0986C3AC0906C38C09F70906A35C01E
:102010009C2F8827816F906A30C041E050E002C059
:10202000440F551F2A95E2F780E2989F90011124F2
:10203000CA01822B932B9A6820C0982F8827846F1F
:10204000906A1BC09C2F8827806F906A16C08F7083
:102050000E94D9109E0194E0369527959A95E1F754
:102060002F7030E0322F22273069A901482BCA0196
:1020700004C080E090E001C0CE01DF91CF910895CF
:102080000E94060F0E94240F08958238910569F17D
:10209000B0F48133910509F46DC048F4893291059B
:1020A00009F463C08A32910509F469C00895853343
:1020B000910509F455C089339105B9F00895833E1F
:1020C000910569F138F4803E9105B1F0823E9105A9
:1020D00009F10895863E9105A9F1873E9105B9F170
:1020E000843E910509F064C023C02091430220FD85
:1020F0004FC021FD4DC008958091430280FD44C032
:102100008091440280FF44C08091430284FD42C01C
:1021100083EE4DC08091430282FF38C0F5CF80919D
:10212000430282FD33C08091440280FD31C0ECCF78
:102130008091440281FF32C08091430284FD2AC015
:1021400087EE35C08091430283FF26C0F5CF809192
:10215000430283FD21C08091440281FD1FC0ECCF6A
:102160008091430285FD1CC01DC08091430285FD06
:1021700019C016C08091430286FD16C017C0809119
:10218000430286FD13C010C089E311C082EE0FC068
:1021900080EE0DC080E00BC086EE09C084EE07C063
:1021A00089E205C085E303C08AE201C081E390E0D3
:1021B00008959091430292FF0DC0282F2871283076
:1021C00019F4877F846006C0282F2471243011F40D
:1021D0008B7F886093FF0DC0282F2871283119F458
:1021E000877E846106C0282F2471243111F48B7EF0
:1021F00088612091440220FF0DC0382F387138309B
:1022000019F4877F816006C0382F3171313011F4A5
:102210008E7F886021FF0DC0282F2871283119F486
:10222000877E816106C0282F2171213111F48E7EB5
:10223000886194FD877E089580E008950C94700D68
:102240000E941A128FE39CE90197F1F700C0000089
:102250000E941A1280E00E945A1180FF04C00E945E
:102260001E110C946F1908950C9420110E94760D84
:10227000811102C00E941E0E0E94810D80930102F6
:102280000E94890D90934402809343020E9434116E
:102290000E94850D682F70E080E090E00E94150795
:1022A00060918F01709190018091910190919201C4
:1022B0000C944D07E82FF0E0E75BFD4F8081089517
:1022C000089580EA8A95F1F7089500C008950C9466
:1022D000611108950C9469110C946A110C946911A0
:1022E0000C946E11F894E82FE295EF70F0E031A1B4
:1022F000282F2F7081E090E001C0880F2A95EAF71F
:10230000982F9095932391A392A1892B82A37894DF
:102310000895CF93DF93CEE7D1E089918F3F11F0FD
:102320000E94721181E0C238D807B9F787EF0E9486
:10233000721181E30E94721183E3DF91CF910C94BB
:102340007211CF92DF92EF92FF920F931F93CF9370
:10235000DF938C01C62FD0E0CE0182589E4F7C01C6
:10236000FC0190819F3F09F447C0D62EF894E92FD5
:10237000E295EF70F0E081A19F7021E030E001C0B4
:10238000220F9A95EAF7822B81A382A12095282318
:1023900022A378940E946511EBE7F1E04EE751E04B
:1023A00031E0C12C21912F3F89F0A22FA295AF706F
:1023B000B0E090968C9190E02F7002C09595879533
:1023C0002A95E2F780FD02C0832F01C080E0C82A71
:1023D000330F4E175F0731F7F70180818F3F11F000
:1023E0000E94721161E0C11001C060E08D2D0E9459
:1023F0006711C00FD11FC882DF91CF911F910F913C
:10240000FF90EF90DF90CF9008950E94891184E0B3
:10241000E9E4F2E0DF01982F1D929A95E9F7E5E4EF
:10242000F2E0DF011D928A95E9F784E00E945C12D8
:102430000C94FC011F93CF93DF9300D000D0CDB755
:10244000DEB719821A821B821C8210E0612FCE0136
:1024500001960E94A1111F5F1430C1F744E050E0C3
:10246000BE016F5F7F4F85E492E00E948F2011E0F4
:10247000009709F410E0892B61F089819A81AB8182
:10248000BC818093450290934602A0934702B0938B
:102490004802212F44E069E472E085E492E00E9462
:1024A0005D120E940202812F0F900F900F900F90EB
:1024B000DF91CF911F9108950895FF920F931F937D
:1024C000CF93DF938C01F62ED72FC42F222349F010
:1024D00081E0809304020E9422199093030280936A
:1024E0000202809104028823C1F08091020290913F
:1024F00003020E943A19059780F0EF2DFD2FD801B5
:102500004C2F50E0CD01801B910B841795071CF4D4
:102510008D918193F7CF10920402DF91CF911F919B
:102520000F91FF9008950E94271B0E945E0E0C944D
:10253000331B0E94371B0E94640E0C94511B0E9497
:10254000A9180E940E1B0E94500E0E9493120E9416
:1025500099120E945A0EFBCF80910B0280FF0BC094
:102560006091090185E0689FB00111247595679518
:10257000759567952BC081FF09C06091090185E0C1
:10258000689FB00111247595679520C082FF07C030
:102590006091090185E0689FB001112417C09091F6
:1025A0000A029923D1F060910801961788F72091CB
:1025B000090185E0289F90011124929FA001939F1B
:1025C000500D112470E0CA010E946120603871052D
:1025D00040F46115710519F406C065E070E0862FBE
:1025E00008958FE7089581E0089580910B0280FFA0
:1025F00008C06091050170E07595679575956795C0
:1026000021C081FF06C06091050170E07595679556
:1026100019C082FF04C06091050170E010C0909164
:102620000902992399F0609104019617A0F780910F
:102630000501899FC001112470E00E94612060386B
:10264000710540F46115710519F406C061E070E090
:10265000862F08958FE7089581E008958D3E21F437
:102660000E94AC12819504C08E3E29F40E94AC12E7
:1026700080930F0208958F3E21F40E94AC12819541
:1026800004C0803F29F40E94AC1280930E0208958A
:10269000893F19F40E94F51205C08A3F31F40E9467
:1026A000F51281958093100208958B3F21F40E94CA
:1026B000F512819504C08C3F29F40E94F512809395
:1026C000110208959FE0980F983078F421E030E0EF
:1026D000A90102C0440F551F9A95E2F7CA019091D3
:1026E0000D02892B80930D0208958D3F21F4809176
:1026F0000B0281600BC08E3F21F480910B0282603F
:1027000005C08F3F29F480910B02846080930B02F7
:1027100008958D3E39F490910F0297FF35C01092C5
:102720000F0259C08E3E29F490910F021916BCF386
:102730002BC090910E028F3E29F497FF25C0109276
:102740000E0249C0803F19F41916CCF31DC09091B8
:102750001002893F29F41916BCF4109210023BC0F4
:102760008A3F19F497FF10C0F8CF8B3F39F490914E
:10277000110297FF09C0109211022DC08C3F21F465
:10278000909111021916BCF39FE0980F983080F4D5
:1027900021E030E0A90102C0440F551F9A95E2F7ED
:1027A000CA01809590910D02892380930D0213C078
:1027B0008D3F21F480910B028E7F0BC08E3F21F460
:1027C00080910B028D7F05C08F3F29F480910B0211
:1027D0008B7F80930B0280910E02811106C0809145
:1027E0000F02811102C010920A0280911002811121
:1027F00006C080911102811102C010920902089551
:102800000E94221920910E02211104C020910F0272
:10281000222321F090930802809307022091100256
:10282000211104C020911102222321F0909306026D
:10283000809305028CE092E00C949717EF92FF9240
:102840000F931F93CF93DF9300D000D000D0CDB76C
:10285000DEB786E0ECE0F2E0DE01119601900D9229
:102860008A95E1F7E0900E02F0900F0200911002BD
:102870001091110210920E0210920F02109210028B
:1028800010921102E11003C0FF2009F45DC0809195
:102890000702909108020E943A19AC0190910A0235
:1028A000992339F020910A0130E02417350758F0B8
:1028B0004BC020910B018AE0289F9001112424171E
:1028C000350718F041C09F3F19F09F5F90930A02AF
:1028D000EE2061F00E94AC121E1414F09FEF01C0B4
:1028E00091E0989F902D112490930E02FF2061F0AB
:1028F0000E94AC121F1414F09FEF01C091E0989F4A
:10290000902D112490930F0230910E023323E1F0A9
:1029100020910F022223C1F045EB3403C0011124A2
:10292000992319F090930E0203C081E080930E0268
:1029300035EB2303C0011124992319F090930F0262
:1029400003C081E080930F02011103C0112309F439
:102950005DC080910502909106020E943A19AC0177
:1029600090910902992339F02091060130E0241753
:10297000350758F04BC0209107018AE0289F90014D
:1029800011242417350718F041C09F3F19F09F5FAD
:1029900090930902002361F00E94F512101614F0C2
:1029A0009FEF01C091E0989F902D11249093100209
:1029B000112361F00E94F512111614F09FEF01C06F
:1029C00091E0989F902D1124909311023091100264
:1029D0003323E1F0209111022223C1F045EB3403AF
:1029E000C0011124992319F09093100203C081E0D3
:1029F0008093100235EB2303C0011124992319F0B1
:102A00009093110203C081E08093110280910E0225
:102A100081110BC080910F02811107C080911002BB
:102A2000811103C08091110281110E940014EB8278
:102A3000FC820D831E8386E0FE013196ACE0B2E09D
:102A400001900D928A95E1F726960FB6F894DEBFB5
:102A50000FBECDBFDF91CF911F910F91FF90EF90EF
:102A60000895ECE0F2E086E0DF011D928A95E9F737
:102A700010920A021092090210920B020895CF934D
:102A8000DF93EC01FB018281882309F426C1C43065
:102A9000FDE5DF0760F4CB3F9CE5D90768F49E01B4
:102AA00022503C452431310508F018C105C0C2361A
:102AB000EDE5DE0709F012C10E94890D90934402F2
:102AC00080934302C031FCE5DF0709F4CAC008F077
:102AD00041C0C8309CE5D90709F4A4C0F0F4C43063
:102AE000FCE5DF0709F48CC068F4C2309CE5D90727
:102AF00009F482C0C330DC4509F0E5C0809143028F
:102B00008260DFC0C630FCE5DF0709F483C008F04F
:102B100085C0809143028860D4C0CC309CE5D90741
:102B200009F490C068F4CA30FCE5DF0709F47EC000
:102B300008F084C00E94B406809143028068C1C03E
:102B4000CE309CE5D90709F481C008F086C0809199
:102B5000430294C0CD3FFCE5DF0709F47BC038F5A4
:102B6000C4319CE5D90709F49AC058F4C231FCE598
:102B7000DF0709F47AC008F07EC0809143028F7BA2
:102B8000A0C0CB3F9CE5D907F1F108F03FC0C531AB
:102B9000DC4509F098C08091430282FB222720F98E
:102BA00091E0922790FB82F990FB83F98AC0C130B3
:102BB0008DE5D80709F467C050F480914402CF3FF7
:102BC000ECE5DE07C1F108F05BC08D7F65C0C33066
:102BD0008DE5D80709F471C008F46DC0C236DD4533
:102BE00009F071C08091430284FB222720F991E013
:102BF000922790FB84F965C080914302816061C097
:102C00008091430216C08091440216C08091440214
:102C1000826042C080914302806153C08091430230
:102C200080624FC08091430280644BC08091430218
:102C30008860846046C0826081602EC080914302BB
:102C40008E7F3FC0809143028D7F3BC080914302C5
:102C5000877F37C08091440214C0809143028F7EE9
:102C600030C0809143028F7D2CC00E94B4068091B9
:102C700043028F7726C080914302877F8B7F21C0DC
:102C80008D7F8E7F09C080914402982F909591701E
:102C90008E7F892B90FB81F98093440214C00E949F
:102CA000B4068091430287FB222720F991E0922706
:102CB00090FB87F906C081E001C080E00E94200EF1
:102CC00002C08093430280914302909144020E948B
:102CD0009A0D0E94B40680E001C081E0DF91CF919F
:102CE0000895CF93DF9386319C4541F5EB010E9417
:102CF0008D0C982F8A812091020130910301882345
:102D000079F09A7A81E009F480E0809312029111BF
:102D100002C069E201C065E3C9010E9467180AC0E8
:102D200080911202811102C069E201C065E3C9010C
:102D30000E9472180E94DF0C80E001C081E0DF91E8
:102D4000CF9108950F931F93CF93DF93C42FD22F6A
:102D5000FC0182818823C9F0409315020E94221948
:102D6000909314028093130280E28C0F883008F055
:102D700057C0C77081E001C0880FCA95EAF7DF919C
:102D8000CF911F910F910C94060480911502481366
:102D900030C080911302909114020E943A19883C2D
:102DA000910538F510E21D0FCD17B9F080E28C0FB8
:102DB000883040F4C77081E001C0880FCA95EAF7F7
:102DC0000E940D04183028F581E09D2F977001C0F6
:102DD000880F9A95EAF70E940604802F0E94FD034F
:102DE0001830F0F4D77081E001C0880FDA95EAF767
:102DF0000AC080E28C0F883098F4C77081E001C06F
:102E0000880FCA95EAF7DF91CF911F910F910C942B
:102E10000D04802FDF91CF911F910F910C94FD0332
:102E2000DF91CF911F910F9108950F939C01CB01DA
:102E3000243F4CE5340731F188F4293DFCE53F0798
:102E4000D9F02A3D4CE5340779F1283D3C45A9F5F8
:102E500006E221EE41EE68ED7CE52BC0263FFCE565
:102E60003F07E1F0A8F0273F3C4539F507E225EEA2
:102E700046EE67EF7CE51DC007E225EE45EE69ED05
:102E80007CE517C006E221EE40EE64EF7CE511C060
:102E900007E225EE44EE65EF7CE50BC006E221EE8D
:102EA00042EE66EF7CE505C008E221E045EE6AED02
:102EB0007CE50E94A21680E008C0FC018281882384
:102EC00019F01092150201C081E00F9108959093BE
:102ED000830180938201089590931B0280931A02CC
:102EE0000895E0911A02F0911B02309721F00190B1
:102EF000F081E02D099480E00895E0911A02F091AC
:102F00001B02309799F020911801222359F020914B
:102F1000430227FF07C0DC012C9111962C931197D7
:102F200026E02C930280F381E02D09940895E0912E
:102F30001A02F0911B02309739F022E0DC012C9349
:102F40000480F581E02D09940895209118023091B4
:102F500019022817390771F090931902809318020B
:102F6000E0911A02F0911B02309721F00680F78160
:102F7000E02D099408952091160230911702281728
:102F8000390771F09093170280931602E0911A02AC
:102F9000F0911B02309721F00084F185E02D099417
:102FA0000895FC01329680911801882331F08091B8
:102FB000430287FF02C09EE101C096E080E091508D
:102FC00028F021912223D9F38F5FF9CF089566234A
:102FD00051F1209118012223E9F02091430227FFAB
:102FE00019C0462F4695469546954E31E0F46770D8
:102FF00021E030E002C0220F331F6A95E2F7FC01A6
:10300000E40FF11D828190E02823392381E0232BF6
:1030100069F409C0FC01329608962191621729F0E3
:10302000E817F907D1F780E0089581E008959C0141
:10303000FC0132969FEF80E04191461789F09F3F57
:1030400019F4411101C0982F8F5F8630A9F79F3F77
:1030500039F0F901E90FF11D97FDFA9562830895A2
:1030600008959C012A5F3F4FFC014281461301C035
:103070001282019682179307B9F70895262F269595
:10308000269526952E3168F4FC01E20FF11D67703C
:1030900021E030E001C0220F6A95EAF78281282BF7
:1030A00022830895262F2695269526952E3170F495
:1030B000FC01E20FF11D677021E030E001C0220F3A
:1030C0006A95EAF72095828128232283089520912A
:1030D0001801222329F02091430227FD0C943E1869
:1030E0000C94171820911801222329F020914302F3
:1030F00027FD0C9452180C94311820911801FC01F2
:103100003296222331F08091430287FF02C08EE184
:1031100001C086E0DF011D928A95E9F708950895C0
:103120000C948F1883E080931C020C9490188111EA
:1031300002C081E001C082E080931C020C949018D0
:103140000C94971881E080931C020C9490180C94B6
:10315000A218089580915502843031F10E94040232
:1031600010921D0220E488E190E00FB6F894A89533
:10317000809360000FBE2093600083B7817F8460DE
:1031800083BF83B7816083BF7894889583B78E7F30
:1031900083BF0FB6F894A8958091600088618093F2
:1031A0006000109260000FBE089508950C94D51829
:1031B000CF930E94D6180E941A120E94D518C0E020
:1031C0008C2F0E945A11811104C0CF5FC430C1F707
:1031D00001C081E0CF9108950E94B4060C946D0265
:1031E0001F920F920FB60F9211248F939F93AF935C
:1031F000BF9380911D02811113C080914D02909167
:103200004E02A0914F02B09150024196A11DB11DF6
:1032100080934D0290934E02A0934F02B0935002C0
:10322000BF91AF919F918F910F900FBE0F901F9004
:10323000189582E084BD93E095BD9AEF97BD809389
:103240006E0008952FB7F89480914D0290914E0230
:10325000A0914F02B09150022FBF08952FB7F8945C
:1032600060914D0270914E0280914F0290915002F8
:103270002FBF08959C014FB7F89480914D02909113
:103280004E02A0914F02B09150024FBF821B930B90
:10329000089578941F920F920FB60F9211248F9376
:1032A0009F93AF93BF9380914D0290914E02A09156
:1032B0004F02B09150020196A11DB11D80934D02A5
:1032C00090934E02A0934F02B0935002BF91AF91E2
:1032D0009F918F910F900FBE0F901F90189587E7C9
:1032E00097E790930108809300089AE088E10FB671
:1032F000F894A895809360000FBE90936000FFCF74
:10330000809141020895089522E02093E9002FEF73
:103310003091E800215035FD06C035ED3A95F1F7C2
:1033200000002111F5CF2091E80025FF0BC040E0FF
:1033300050E066E070E00E94C31B8091E8008E7749
:103340008093E8000895CF93DF9320911801222302
:1033500039F02091430227FF03C060E222E002C05F
:1033600068E021E02093E9002FEF3091E800215040
:1033700035FD06C035ED3A95F1F700002111F5CF86
:103380002091E80025FF1DC0EC01809118018111FA
:1033900005C040E050E068E070E003C070E040E04D
:1033A00050E0CE010E94C31B8091E8008E7780938D
:1033B000E80080E2FE01A1E2B2E001900D928A9560
:1033C000E1F7DF91CF91089580931E027093200260
:1033D00060931F0280915502843001F582E0809352
:1033E000E9008FEF9091E800815095FD06C095EDC2
:1033F0009A95F1F700008111F5CF8091E80085FFE3
:103400000DC040E050E063E070E08EE192E00E9489
:10341000C31B8091E8008E778093E8000895BC017B
:1034200084E00C94E419BC0183E00C94E4198091CD
:103430005402811109C00E94541D0E94B11D809147
:10344000E20084608093E20008951092540208958F
:103450000C94A7186091510281E0611101C080E0D5
:103460000C9492189091550281E0943009F080E01C
:10347000609151020C94971842E061EC81E00E9447
:10348000CD1C42E261EC82E00E94CD1C909155027D
:1034900081E0943009F080E0609151020C94A01812
:1034A00080915702833009F461C030F4813071F0AB
:1034B000823009F49AC008958A3009F486C08B30AE
:1034C00009F46CC0893009F0A8C020C08091560270
:1034D000813A09F0A2C08091E800877F8093E800DC
:1034E00080915A0290915B02892B21F460E281E283
:1034F00092E003C060E080E090E070E00E940E1C6B
:103500008091E8008B778093E800089580915602BF
:10351000813209F082C080915A0290915B02029739
:1035200008F07BC08091E800877F8093E80080915D
:10353000E80082FD05C0809155028111F8CF6DC071
:103540002091F3008091F20090E0922B029731F4E9
:103550008091F100813011F0863021F48091F100EA
:10356000809341028091E8008B7753C0809156028E
:10357000813A09F052C080915A0290915B02892BE6
:1035800009F04BC08091E800877F8093E80080912C
:10359000E80080FFFCCF8091180136C08091560270
:1035A0008132D9F580915A0290915B02892BA9F55D
:1035B0008091E800877F8093E8000E94021D80913F
:1035C0005802809318010C94B406809156028132FF
:1035D00021F58091E800877F8093E8000E94021D1A
:1035E0008091590280934202089580915602813A57
:1035F000A1F48091E800877F8093E8008091E80043
:1036000080FFFCCF809142028093F1008091E8001E
:103610008E778093E8000C94021D089584B7877F0D
:1036200084BF0FB6F894A89580916000886180935C
:103630006000109260000FBE90E080E80FB6F89432
:1036400080936100909361000FBE0C94A2180E94B9
:10365000541D0E94B11DE2EEF0E080818460808301
:1036600078940C9446208CE091E00C946C17809137
:1036700055028530A9F480915502853079F40E9475
:10368000AA18809153028823B1F30E94D818882386
:1036900091F30E94AD1B0E94B406EDCF0C94EC1880
:1036A000089508950C94541B292F33272330310596
:1036B000C9F060F42130310581F02230310509F084
:1036C00044C08BE390E02EE731E043C02132310566
:1036D000E1F02232310549F138C082E190E029EB76
:1036E00031E037C099278130910549F028F00297E1
:1036F00061F5E4E4F1E005C0EAE7F1E002C0E2E5EB
:10370000F1E0849190E09F0124C06115710541F0C2
:1037100061307105D1F489E090E029EA31E019C007
:1037200089E090E020E931E014C06115710541F0B5
:103730006130710551F486EB90E02BEC31E009C06B
:1037400080E490E021E832E004C080E090E020E0F6
:1037500030E0FA0131832083089580E189BD82E160
:1037600089BD09B400FEFDCF8091D8008F7D809384
:10377000D8008091E00082608093E0008091E000BA
:1037800081FDFCCF0895CF92DF92EF92FF920F93CD
:103790001F93CF93DF93EC018B017A010E94211DCF
:1037A000811133C0E114F10439F0F7018081918176
:1037B000081B190BC80FD91FC12CD12C01151105DD
:1037C00019F18091E80085FD16C08091E8008E77A0
:1037D0008093E800E114F10449F0F70180819181C0
:1037E000C80ED91ED182C08285E00FC00E94211D63
:1037F000882321F30AC089918093F10001501109B7
:10380000FFEFCF1ADF0ADACF80E0DF91CF911F916F
:103810000F91FF90EF90DF90CF90089520915C0280
:1038200030915D022617370748F06115710539F4AC
:103830002091E8002E772093E80001C0B901FC0137
:1038400020E06115710579F1809155028823F1F12D
:103850008530F1F18091E80083FD3CC08091E80063
:1038600082FD2EC08091E80080FFEBCF2091F30015
:103870008091F20090E0922B6115710551F0883033
:10388000910538F421912093F1006150710901965E
:10389000F3CF21E0089709F020E08091E8008E77CF
:1038A0008093E800CECF2111CFCF0AC0809155027E
:1038B000882361F0853061F08091E80083FD0AC0C3
:1038C0008091E80082FFF2CF80E0089582E00895C1
:1038D00083E0089581E0089520915C0230915D02BB
:1038E0002617370748F06115710539F42091E80073
:1038F0002E772093E80001C0B901FC0120E061159A
:10390000710591F180915502882309F440C08530FA
:1039100009F43FC08091E80083FD3DC08091E8003C
:1039200082FD2FC08091E80080FFE9CF2091F30055
:103930008091F20090E0922B6115710559F088306A
:10394000910540F424912093F10031966150710962
:103950000196F2CF21E0089709F020E08091E8007D
:103960008E778093E800CBCF2111CCCF0AC0809115
:103970005502882361F0853061F08091E80083FD75
:103980000AC08091E80082FFF2CF80E0089582E0D3
:10399000089583E0089581E00895982F973068F5A1
:1039A0009093E900981739F07091EC002091ED00A8
:1039B0005091F00003C0242F762F50E021FD02C06B
:1039C0009F5FECCF3091EB003E7F3093EB00309166
:1039D000ED003D7F3093ED003091EB00316030938E
:1039E000EB007093EC002093ED005093F0002091D9
:1039F000EE0027FDE5CF80E008958F708093E90009
:103A000081E008958091560287FF11C08091E800FF
:103A100082FD05C0809155028111F8CF11C08091BF
:103A2000E8008B770BC080915502882349F0809184
:103A3000E80080FFF8CF8091E8008E778093E8005F
:103A400008952091E4003091E50095E64091EC0066
:103A5000842F817040FF23C08091E80080FD1DC04D
:103A600080915502882399F0853099F08091EB0080
:103A700085FD11C04091E4005091E5002417350701
:103A800029F3915011F09A01E1CF84E0089582E08A
:103A9000089583E0089581E0089580E008954091BD
:103AA000E80042FFDDCF08950E94C21D0E94CA1D9A
:103AB000E0EEF0E0808181608083E8EDF0E08081DD
:103AC0008F77808319BCA7EDB0E08C918E7F8C93AB
:103AD00080818F7E80831092540208950F931F93EC
:103AE000CF93DF930E94C21D0E94CA1DC8EDD0E093
:103AF00088818F77888388818068888388818F7D9B
:103B0000888319BC109255021092510210925302F0
:103B10001092520200EE10E0F80180818B7F8083CA
:103B200088818160888342E060E080E00E94CD1C53
:103B3000E1EEF0E080818E7F8083E2EEF0E0808134
:103B400081608083808188608083F80180818E7F9E
:103B50008083888180618883DF91CF911F910F914D
:103B60000895E8EDF0E080818F7E8083E7EDF0E05E
:103B700080818160808384E082BF81E080935402F1
:103B80000C946E1DE8EDF0E080818E7F80831092B2
:103B9000E20008951092DA001092E10008951F9259
:103BA0000F920FB60F9211242F933F934F935F9371
:103BB0006F937F938F939F93AF93BF93EF93FF93F5
:103BC0008091E10082FF0BC08091E20082FF07C07C
:103BD0008091E1008B7F8093E1000E9445208091DD
:103BE000DA0080FF1FC08091D80080FF1BC0809149
:103BF000DA008E7F8093DA008091D90080FF0DC0BB
:103C000080E189BD82E189BD09B400FEFDCF81E07C
:103C1000809355020E94171A05C019BC10925502D4
:103C20000E94251A8091E10080FF19C08091E20076
:103C300080FF15C08091E2008E7F8093E20080912A
:103C4000E20080618093E2008091D80080628093DE
:103C5000D80019BC85E0809355020E942A1A8091F1
:103C6000E10084FF30C08091E20084FF2CC080E13D
:103C700089BD82E189BD09B400FEFDCF8091D800E5
:103C80008F7D8093D8008091E1008F7E8093E1004A
:103C90008091E2008F7E8093E2008091E20081605B
:103CA0008093E20080915102882311F084E007C0E4
:103CB0008091E30087FD02C081E001C083E0809332
:103CC00055020E94321A8091E10083FF29C0809141
:103CD000E20083FF25C08091E100877F8093E100AF
:103CE00082E080935502109251028091E1008E7F14
:103CF0008093E1008091E2008E7F8093E2008091CA
:103D0000E20080618093E20042E060E080E00E9497
:103D1000CD1C8091F00088608093F0000E94281AEA
:103D2000FF91EF91BF91AF919F918F917F916F9193
:103D30005F914F913F912F910F900FBE0F901F9069
:103D400018951F920F920FB60F9211242F933F9345
:103D50004F935F936F937F938F939F93AF93BF9393
:103D6000CF93DF93EF93FF93C091E900CF708091E1
:103D7000EC00D82FD17080FDD0E81092E90080913E
:103D8000F000877F8093F00078940E94E51E1092E7
:103D9000E9008091F00088608093F000CD2BCF7017
:103DA000C093E900FF91EF91DF91CF91BF91AF9167
:103DB0009F918F917F916F915F914F913F912F9143
:103DC0000F900FBE0F901F9018951F93CF93DF9306
:103DD000CDB7DEB7AA970FB6F894DEBF0FBECDBF42
:103DE000E6E5F2E08091F100819322E0EE35F20702
:103DF000C9F70E94501A8091E80083FF2EC180917C
:103E0000560290915702492F50E04A30510508F070
:103E100024C1FA01EC58FF4F0C947520803821F032
:103E2000823809F01AC108C0809152029091530261
:103E3000992389F082600FC080915A028F70873079
:103E400008F00BC18093E9008091EB0085FB882787
:103E500080F91092E9009091E800977F9093E80034
:103E60008093F1001092F100D1C0282F2D7F09F02E
:103E7000F4C0882319F0823061F0EFC080915802BD
:103E8000813009F0EAC0933009F080E0809353025A
:103E90002EC08091580281112AC080915A028F70E1
:103EA0002FEF280F263008F0D8C08093E90020912A
:103EB000EB0020FF1CC0933021F48091EB00806266
:103EC00014C09091EB0090619093EB0021E030E002
:103ED000A90102C0440F551F8A95E2F74093EA00FA
:103EE0001092EA008091EB0088608093EB001092C2
:103EF000E9008091E800877F8093E8000E94021D1E
:103F0000ACC08111AAC0109158021F778091E300C4
:103F10008078812B8093E3008091E800877F8093F5
:103F2000E8000E94021D8091E80080FFFCCF809194
:103F3000E30080688093E300111102C082E001C0B9
:103F400083E08093550289C08058823008F085C094
:103F500080915802909159028C3D53E0950779F574
:103F600083E08A838AE289834FB7F894DE0113964F
:103F700020E03EE051E2E32FF0E050935700E4915F
:103F800020FF03C0E295EF703F5FEF708E2F90E04F
:103F9000EA3010F0C79601C0C0968D939D932F5FB5
:103FA000243149F74FBF8091E800877F8093E80074
:103FB0006AE270E0CE0101960E940E1C16C060916C
:103FC0005A0270915B02AE014F5F5F4F0E94521B1D
:103FD000BC01892B09F441C09091E800977F909330
:103FE000E80089819A810E946C1C8091E8008B779F
:103FF0008093E80032C0803881F58091E800877FA7
:104000008093E800809151028093F1008091E80054
:104010008E7772CF811121C0809158029091590200
:1040200099270297D4F48091E800877F8093E80075
:1040300080915802809351020E94021D809151028A
:10404000811106C08091E30087FD02C081E001C0BC
:1040500084E0809355020E943C1A8091E80083FF1F
:104060000AC08091E800877F8093E8008091EB0090
:1040700080628093EB00AA960FB6F894DEBF0FBE65
:10408000CDBFDF91CF911F9108950895CF93809177
:1040900055028823A1F0C091E900CF709091EC0007
:1040A000892F817090FD80E8C82B1092E9008091E3
:1040B000E80083FD0E94E51ECF70C093E900CF9118
:1040C000089597FB072E16F4009407D077FD09D0CA
:1040D0000E947B2007FC05D03EF4909581959F4F70
:1040E0000895709561957F4F0895EE0FFF1F05901D
:1040F000F491E02D0994AA1BBB1B51E107C0AA1F34
:10410000BB1FA617B70710F0A61BB70B881F991F78
:104110005A95A9F780959095BC01CD010895FB01B2
:10412000DC0104C08D910190801921F44150504070
:10413000C8F7881B990B0895F999FECF92BD81BDF0
:10414000F89A992780B50895A8E1B0E042E050E0E0
:104150000C94D020262FF999FECF92BD81BDF89AFC
:10416000019700B4021639F01FBA20BD0FB6F894BB
:10417000FA9AF99A0FBE08950396272F0E94AB2052
:104180000E94AA20252F0E94AB20242F0C94AB2044
:104190000196272F0E94AB200C94AA20DC01CB01B2
:1041A000FC01F999FECF06C0F2BDE1BDF89A319647
:1041B00000B40D9241505040B8F70895F894FFCFE5
:1041C000C800D1012808641E140A321E8019A319E0
:1041D0008419131A0F1A831901E200E900EA00B5E5
:1041E00000B600B700CD008301CC008A0192019493
:1041F000012102230224022502260227022A02B3F9
:1042000000B4006F007000818283E200E900EA00E0
:10421000B500B600B700CD008301CC008A01920141
:1042200094012102230224022502260227022A02E7
:10423000B300B4006F007000818283F7313394665D
:0242400097C61F
:00000001FF
